:100000000C944C000C946B000C946B000C946B00E3
:100010000C946B000C946B000C946B000C946B00B4
:100020000C946B000C946B000C946B000C946B00A4
:100030000C946B000C946B000C946B000C946B0094
:100040000C946B000C946B000C946B000C946B0084
:100050000C946B000C946B000C946B000C946B0074
:100060000C946B000C946B000C946B000C946B0064
:100070000C946B000C946B000C946B000C946B0054
:100080000C946B000C946B000C946B000C946B0044
:100090000C946B000C946B0011241FBECFEFD0E2C8
:1000A000DEBFCDBF11E0A0E0B1E0EEE9F5E000E099
:1000B0000BBF02C007900D92A43EB107D9F711E023
:1000C000A4EEB1E001C01D92A43EB107E1F70E9489
:1000D000B8000C94CD020C940000E1E6F0E080E85A
:1000E0008083108287E690E00E9407018CE00E94E6
:1000F000120180E391E00E9424018EE491E00E94CD
:10010000240160E085E00E94B1018AE891E00E944C
:1001100024010E947F018DE991E00E94240180E486
:100120000E949D0180EC91E00E94240111B887EEAD
:1001300084B98FEF87B987E48DB910BA12B881E01E
:1001400085B981E888B91EB811BA80E4809380002F
:100150008BE08093810088E190E090938900809308
:10016000880085ED91E00E94240181E58CBD089511
:10017000CF93DF93CDB7DEB7E0970FB6F894DEBF2D
:100180000FBECDBF0E946D000E94B30280E1E0E08F
:10019000F1E0DE01919601900D928A95E1F780E100
:1001A000E0E1F1E0DE01519601900D928A95E1F7D0
:1001B00020E1E0E2F1E0CE010196DC0101900D9238
:1001C0002A95E1F700E010E06C010E94B3020EB93D
:1001D0007801EE0CFF1CEC0CFD1CF70180A10E94C5
:1001E0005602F70180890E943002F70180810E9447
:1001F00043028FEC97E00197F1F700C000000F5F1A
:100200001F4F083011050CF300E010E0DECF909393
:10021000CD008093CC0088E18093C90086E0809374
:10022000CA0008959091C80095FFFCCF8093CE003E
:1002300008958091C800807808958091C80087FF54
:10024000FCCF8091CE000895EF92FF92CF93DF9381
:10025000E82EE7017E01F92EE70102C00E9412019B
:1002600089918823D9F7DF91CF91FF90EF9008957E
:10027000ECE7F0E09081907E908390818F71892BE4
:1002800080830895813021F480917C00806203C0D6
:1002900080917C008F7D80937C000895EAE7F0E0F8
:1002A0009081987F908390818770892B80830895B7
:1002B000882399F080917B008B7F80937B008091D5
:1002C0007B008D7F80937B0080917B008E7F80936D
:1002D0007B0080917A00806203C080917A008F7DDC
:1002E00080937A000895EAE7F0E080818860808357
:1002F0000895EAE7F0E08081877F80830895EAE748
:10030000F0E08081806880830895EAE7F0E08081F2
:100310008F7780830895EAE7F0E0808180648083AE
:100320000895EAE7F0E080818061808308959091EC
:100330007A0081E094FF80E0089590917C009F73A3
:1003400090937C0090917C00807C892B80937C0032
:100350000E948B010E9497018823E1F30E94910182
:100360000895DF93CF930F92CDB7DEB769830E94D4
:100370004E016981862F0E9458010F90CF91DF9125
:1003800008950E94380180E00E9442010E948B0182
:100390000E9497018823E1F30E94910180917800E7
:1003A000909179000895EF92FF920F931F93DF933E
:1003B000CF930F92CDB7DEB7182FEE24FF2400E0C5
:1003C00008C0812F69830E94C101E80EF11C0F5FF4
:1003D00069810617B0F3C70170E00E94B902862F49
:1003E0000F90CF91DF911F910F91FF90EF900895A3
:1003F0000E94380180E00E9442010E948B010E940D
:1004000097018823E1F30E949101209178003091B7
:100410007900C9010895EF92FF920F931F93DF9324
:10042000CF930F92CDB7DEB7182FEE24FF2400E054
:1004300008C0812F69830E94F801E80EF91E0F5F42
:1004400069810617B0F3C70170E00E94B902CB01C1
:100450000F90CF91DF911F910F91FF90EF90089532
:100460001EBC0DB407FEFDCF8EBD0DB407FEFDCF43
:100470001EBC0DB407FEFDCF2F9A8AEF90E00197C6
:10048000F1F72F9808951EBC0DB407FEFDCF1EBCDA
:100490000DB407FEFDCF8EBD0DB407FEFDCF2F9A24
:1004A0008AEF90E00197F1F72F9808958EBD0DB473
:1004B00007FEFDCF1EBC0DB407FEFDCF1EBC0DB464
:1004C00007FEFDCF2F9A8AEF90E00197F1F72F9862
:1004D000089508958EBD0DB407FEFDCF6EBD0DB419
:1004E00007FEFDCF4EBD0DB407FEFDCF2F9A2F980E
:1004F00008959EB180958770987F892B8EB967701B
:1005000080E890E002C0959587956A95E2F760E0F3
:1005100040E00E946A0208959EB180958770987F9E
:10052000892B8EB9677020E830E002C03595279599
:100530006A95E2F780E0622F40E00E946A02089527
:100540009EB180958770987F892B8EB9677040E83F
:1005500050E002C0559547956A95E2F780E060E06B
:100560000E946A02089580E060E040E00E946A0212
:100570000895AA1BBB1B51E107C0AA1FBB1FA617EA
:10058000B70710F0A61BB70B881F991F5A95A9F73C
:0E05900080959095BC01CD010895F894FFCFA1
:10059E007E00BD00DB00000000007E007E0000003B
:1005AE00810042002400FF00000000000000000057
:1005BE000000000000000000FF0081008100FF002D
:1005CE0057756E646572426F61726420696E6974EC
:1005DE0069616C697A696E672E2E2E0D0A000953B9
:1005EE00657474696E67204144432070726573634D
:1005FE00616C657220616E642064697361626C69FE
:10060E006E6720667265652072756E6E696E672004
:10061E006D6F64652E2E2E0D0A0009456E61626C9B
:10062E00696E67204144432E2E2E0D0A0009536534
:10063E007474696E67204144432072656665726505
:10064E006E636520746F205663632E2E2E0D0A0086
:10065E0009436F6E6669677572696E6720494F2E22
:10066E002E2E0D0A000953657474696E672053505F
:04067E00490D0A0018
:00000001FF
