:100000000C948D000C94AC000C94AC000C94AC00DF
:100010000C94AC000C94AC000C94AC000C94AC00B0
:100020000C94AC000C94AC000C94AC000C94AC00A0
:100030000C94AC000C94AC000C94AC000C94AC0090
:100040000C94AC000C94AC000C94AC000C94AC0080
:100050000C94AC000C94AC000C94AC000C94AC0070
:100060000C94AC000C94AC000C94AC000C94AC0060
:100070000C94AC000C94AC000C94AC000C94AC0050
:100080000C94AC000C94AC000C94AC000C94AC0040
:100090000C94AC000C94AC0007634236B79BD8A715
:1000A0001A39685618AEBAAB558C1D3CB7CC57639D
:1000B000BD6DEDFD753EF6177231BF000000803F4B
:1000C00008000000BE922449123EABAAAA2ABECD67
:1000D000CCCC4C3E00000080BEABAAAAAA3E0000D9
:1000E0000000BF000000803F0000000000084178D1
:1000F000D3BB4387D1133D190E3CC3BD4282AD2B08
:100100003E68EC8276BED98FE1A93E4C80EFFFBEFF
:1001100001C4FF7F3F000000000011241FBECFEF8D
:10012000D0E2DEBFCDBF13E0A0E0B1E0EAE1F4E150
:1001300000E00BBF02C007900D92AA33B107D9F7B8
:1001400013E0AAE3B3E001C01D92A034B107E1F7C8
:100150000E94C3010C940B0A0C9400008F929F9292
:10016000AF92BF92CF92DF92EF92FF920F931F93C5
:10017000CF93DF93982E892E6B0100E010E080ED85
:10018000A82E87E0B82E42C0F701619171917F01DE
:100190006130710599F0882777FD8095982F0E942E
:1001A000E0029B01AC0160E070E080E090E40E941E
:1001B00025070E944003AB01BC0102C041E050E0B2
:1001C000CEB980910001909101018C179D0719F41F
:1001D00080E0642F0CC080910201909103018C1784
:1001E0009D0719F480E060E003C0842F60E040E0E8
:1001F0000E948B06C5010197F1F70E94D406219653
:10020000C830D10509F0C0CF0F5F1F4F0C151D0579
:1002100034F4C401E92EF82CC0E0D0E0B5CFDF9172
:10022000CF911F910F91FF90EF90DF90CF90BF90F3
:10023000AF909F908F900895FC01DB018D919C9170
:1002400011972081318111963C932E939183808365
:1002500008958F929F92AF92BF92CF92DF92EF92CA
:10026000FF920F931F93CF93DF935C017B018091EB
:100270003C0390913D03019690933D0380933C0392
:10028000CA2CE6016E01DB2CE60100E010E0CC2474
:10029000DD240894E108F10888248A94982C46C04B
:1002A00010930101009300019092030180920201DA
:1002B000288139818A819B812817390764F5680173
:1002C0000894C11CD11CD0920301C0920201C50147
:1002D0006AE070E00E94AE008A819B8128813981AA
:1002E0003B832A839983888380913A0390913B03CF
:1002F000019690933B0380933A031093030100937C
:100300000201D0920101C092000191E0C92ED12CCE
:1003100065E070E002C06AE070E080913A0388B95D
:10032000C5010E94AE000F5F1F4F22960E151F05DC
:100330000CF4B6CFC601DF91CF911F910F91FF90C2
:10034000EF90DF90CF90BF90AF909F908F900895E7
:100350000F931F93CF93DF93EC018B0110923B031C
:1003600010923A03CE01B8010E9429010097D1F7FB
:100370008FEF9FEF9093010180930001DF91CF9168
:100380001F910F910895FF920F931F93DF93CF93C7
:10039000CDB7DEB7C058D0400FB6F894DEBF0FBE61
:1003A000CDBFDE011196E6E7F1E080E101900D920C
:1003B0008150E1F7DE015196E6E6F1E080E101903F
:1003C0000D928150E1F7DE019196E6E5F1E080E1E2
:1003D00001900D928150E1F7DE01D196E6E4F1E063
:1003E00080E101900D928150E1F7DE01AF5BBF4FDC
:1003F000E6E3F1E080E101900D928150E1F7DE014A
:10040000AF5ABF4FE6E2F1E080E101900D928150DA
:10041000E1F7DE01AF59BF4FE6E1F1E080E1019085
:100420000D928150E1F7DE01AF58BF4FE6E0F1E0F9
:1004300080E101900D928150E1F70E9495020E94A7
:10044000D4068E010F5F1F4FC80168E070E00E9464
:10045000A801C80164E670E00E94AE008E010F5E44
:100460001F4FC80168E070E00E94A801C80164E65F
:1004700070E00E94AE008E010F5D1F4FC80168E062
:1004800070E00E94A801C80164E670E00E94AE001E
:100490008E010F5C1F4FC80168E070E00E94A80148
:1004A000C80164E670E00E94AE008E010F5B1F4F32
:1004B000C80168E070E00E94A801C80164E670E02D
:1004C0000E94AE008E010F5A1F4FC80168E070E015
:1004D0000E94A801C80164E670E00E94AE008E018F
:1004E0000F591F4FC80168E070E00E94A801C801C1
:1004F00064E670E00E94AE008E010F581F4FC801E5
:1005000068E070E00E94A801C80164E670E00E9403
:10051000AE00F02E012F8F2D902F64E670E00E9428
:10052000AE0080913A0388B9F6CFE1E6F0E080E8CA
:100530008083108287E690E00E9428058CE00E946C
:10054000330586E891E00E94450584EA91E00E9427
:10055000450585E060E00E94D20580EE91E00E94B2
:1005600045050E94A00583EF91E00E94450580E4C7
:100570000E94BE0586E192E00E94450511B887EE13
:1005800084B98FEF87B987E48DB910BA12B881E0CA
:1005900085B981E888B91EB811BA80E480938000DB
:1005A0008BE08093810088E190E0909389008093B4
:1005B00088008BE292E00E94450581E58CBD08959C
:1005C000A8E0B0E0E6EEF2E00C94FA067B018C01C4
:1005D00083E08983D801C7018827B7FD83959927D0
:1005E000AA27BB27282F8A83E114F10401051105EE
:1005F00019F482E0898337C08EE190E09C838B837D
:10060000222389F080E0E81680E0F80680E0080701
:1006100080E8180769F110950095F094E094E11CCA
:10062000F11C011D111DED82FE820F831887C80188
:10063000B7010E9493039C0121503040121613060B
:1006400094F4022E04C0EE0CFF1C001F111F0A942C
:10065000D2F7ED82FE820F8318878EE190E0821B35
:10066000930B9C838B83CE0101960E94EE0304C002
:1006700060E070E080E09FEC2896E6E00C941607BE
:10068000ACE0B0E0E6E4F3E00C94FE0669837A8324
:100690008B839C83CE010196BE016B5F7F4F0E94CE
:1006A000BF048D81823081F1823070F1843021F479
:1006B0008E81882371F10AC02F81388537FD24C0CF
:1006C0006E812F3131053CF0662319F120E030E0D6
:1006D00040E050E822C08EE190E0821B930B298518
:1006E0003A854B855C8504C0569547953795279587
:1006F0008A95D2F7662389F05095409530952195DB
:100700003F4F4F4F5F4F09C020E030E040E050E0E6
:1007100004C02FEF3FEF4FEF5FE7B901CA012C96FE
:10072000E2E00C941A07AF92BF92CF92DF92EF9261
:10073000FF920F931F937B018C0180E0E81680E00D
:10074000F80681E0080780E0180760F4EFEFEE1686
:10075000F1040105110509F098F480E090E0A0E0B3
:10076000B0E017C0F0E0EF16F0E0FF06F0E00F0792
:10077000F1E01F0750F480E190E0A0E0B0E009C094
:1007800088E090E0A0E0B0E004C088E190E0A0E064
:10079000B0E020E230E040E050E0281B390B4A0B8B
:1007A0005B0B5701680104C0D694C794B794A79413
:1007B0008A95D2F7D601C501865C9D4FFC018081E8
:1007C000281B310941095109C9011F910F91FF905F
:1007D000EF90DF90CF90BF90AF900895EF92FF928F
:1007E0000F931F93CF93DF93FC01248135814681C2
:1007F000578161818081823020F44061EFEFF0E029
:10080000A6C0843009F49DC0823009F494C021153B
:1008100031054105510509F491C00280F381E02DB5
:100820008FEFE238F8070CF05CC0C2E8DFEFCE1BB8
:10083000DF0BCA31D10574F579018A010C2E04C091
:1008400016950795F794E7940A94D2F781E090E023
:10085000A0E0B0E00C2E04C0880F991FAA1FBB1F98
:100860000A94D2F70197A109B10982239323A42303
:10087000B52321E030E040E050E00097A105B1054C
:1008800021F420E030E040E050E02E293F29402BC9
:10089000512B04C020E030E040E050E0DA01C90113
:1008A0008F779070A070B07080349105A105B1056C
:1008B00039F427FF09C0205C3F4F4F4F5F4F04C002
:1008C000215C3F4F4F4F5F4FE1E0F0E0203080E090
:1008D000380780E0480780E4580728F5E0E0F0E0BA
:1008E00022C0E038F1056CF5E158FF4FDA01C9018B
:1008F0008F779070A070B07080349105A105B1051C
:1009000039F427FF09C0205C3F4F4F4F5F4F04C0B1
:10091000215C3F4F4F4F5F4F57FF05C0569547959E
:1009200037952795319687E05695479537952795C2
:100930008A95D1F70CC0E0E0F0E005C0E0E0F0E01F
:1009400006C0EFEFF0E020E030E040E050E08E2F16
:10095000879588278795942F9F7767956627679552
:10096000E695E22EA92FA82BFE2FF62B622F732FD0
:100970008A2F9F2FCDB7DEB7E6E00C941607DC0177
:10098000FB012C9111963C91119712968C91129724
:10099000482F4F7750E0982F991F9927991F13964A
:1009A0006C911397862F880F892B90E0661F66271E
:1009B000661F6183009739F5211531054105510501
:1009C00011F482E029C082E89FEF9383828367E07D
:1009D000220F331F441F551F6A95D1F783E0808390
:1009E00009C0220F331F441F551F82819381019735
:1009F00093838283203080E0380780E0480780E4DA
:100A0000580778F320C08F3F910579F421153105FF
:100A10004105510519F484E08083089544FF03C023
:100A200081E0808310C010820EC08F579040938366
:100A3000828383E0808387E0220F331F441F551F8A
:100A40008A95D1F75064248335834683578308956C
:100A50009093CD008093CC0088E18093C90086E01C
:100A60008093CA0008959091C80095FFFCCF8093B1
:100A7000CE0008958091C800807808958091C800C4
:100A800087FFFCCF8091CE000895EF92FF92CF9325
:100A9000DF93E82EE7017E01F92EE70102C00E94F4
:100AA000330589918823D9F7DF91CF91FF90EF909B
:100AB0000895ECE7F0E09081907E908390818F71B3
:100AC000892B80830895813021F480917C0080629D
:100AD00003C080917C008F7D80937C000895EAE7BD
:100AE000F0E09081987F908390818770892B80833C
:100AF0000895882399F080917B008B7F80937B0001
:100B000080917B008D7F80937B0080917B008E7F26
:100B100080937B0080917A00806203C080917A008C
:100B20008F7D80937A000895EAE7F0E08081886005
:100B300080830895EAE7F0E08081877F80830895CD
:100B4000EAE7F0E08081806880830895EAE7F0E0DA
:100B500080818F7780830895EAE7F0E08081806468
:100B600080830895EAE7F0E08081806180830895C2
:100B700090917A0081E094FF80E0089590917C004C
:100B80009F7390937C0090917C00807C892B809354
:100B90007C000E94AC050E94B8058823E1F30E9406
:100BA000B2050895DF93CF930F92CDB7DEB7698377
:100BB0000E946F056981862F0E9479050F90CF9161
:100BC000DF9108950E94590580E00E9463050E940C
:100BD000AC050E94B8058823E1F30E94B20580911C
:100BE0007800909179000895EF92FF920F931F93F0
:100BF000DF93CF930F92CDB7DEB7182FEE24FF24EB
:100C000000E008C0812F69830E94E205E80EF11C14
:100C10000F5F69810617B0F3C70170E00E94DA0622
:100C2000862F0F90CF91DF911F910F91FF90EF9042
:100C300008950E94590580E00E9463050E94AC055A
:100C40000E94B8058823E1F30E94B2052091780044
:100C500030917900C9010895EF92FF920F931F938D
:100C6000DF93CF930F92CDB7DEB7182FEE24FF247A
:100C700000E008C0812F69830E941906E80EF91E62
:100C80000F5F69810617B0F3C70170E00E94DA06B2
:100C9000CB010F90CF91DF911F910F91FF90EF90BB
:100CA00008951EBC0DB407FEFDCF8EBD0DB407FE2A
:100CB000FDCF1EBC0DB407FEFDCF2F9A8AEF90E04A
:100CC0000197F1F72F9808951EBC0DB407FEFDCFD4
:100CD0001EBC0DB407FEFDCF8EBD0DB407FEFDCFCB
:100CE0002F9A8AEF90E00197F1F72F9808958EBD23
:100CF0000DB407FEFDCF1EBC0DB407FEFDCF1EBC1C
:100D00000DB407FEFDCF2F9A8AEF90E00197F1F71F
:100D10002F98089508958EBD0DB407FEFDCF6EBDCA
:100D20000DB407FEFDCF4EBD0DB407FEFDCF2F9ACB
:100D30002F9808959EB180958770987F892B8EB9E2
:100D4000677080E890E002C0959587956A95E2F714
:100D500060E040E00E948B0608959EB18095877008
:100D6000987F892B8EB9677020E830E002C03595F6
:100D700027956A95E2F780E0622F40E00E948B069B
:100D800008959EB180958770987F892B8EB9677082
:100D900040E850E002C0559547956A95E2F780E03B
:100DA00060E00E948B06089580E060E040E00E94D1
:100DB0008B060895AA1BBB1B51E107C0AA1FBB1FCE
:100DC000A617B70710F0A61BB70B881F991F5A95D7
:100DD000A9F780959095BC01CD0108952F923F927F
:100DE0004F925F926F927F928F929F92AF92BF923B
:100DF000CF92DF92EF92FF920F931F93CF93DF93E7
:100E0000CDB7DEB7CA1BDB0B0FB6F894DEBF0FBE43
:100E1000CDBF09942A88398848885F846E847D8490
:100E20008C849B84AA84B984C884DF80EE80FD8092
:100E30000C811B81AA81B981CE0FD11D0FB6F89408
:100E4000DEBF0FBECDBFED010895FA01EE0FFF1F0B
:100E500030962105310599F16115710561F48038ED
:100E6000BFE39B0749F168949038810561F08038B1
:100E7000BFEF9B0741F0992342F5FF3FE1053105A4
:100E8000210511F1E8940894E795D901AA2329F4E2
:100E9000AB2FBE2FF85FD0F310C0FF5F70F4A695A4
:100EA000E0F7F73950F019F0FF3A38F49F779F9345
:100EB0000CD00F9007FC905808953EF049C060E0B8
:100EC00070E080E89FE308954FE79F775F934F932B
:100ED0003F932F93D0D02F913F914F915F913ED16F
:100EE00005C019F40EF02EC07DC032C061D0C8F329
:100EF0009638C0F707F80F92E8942BE33AEA48EBEC
:100F00005FE73AD10F920F920F924DB75EB70F92F3
:100F1000F2D0E8E9F0E01FD04F915F91EF91FF919F
:100F2000E595EE1FFF1F49F0FE57E0684427EE0FDE
:100F3000441FFA95E1F74195550B64D00F9007FED9
:100F400058C0089597F99F6780E870E060E00895C1
:100F50009FEF80EC0895DF93CF931F930F93FF9241
:100F6000EF92DF927B018C01689405C0DA2EEF01CD
:100F700001D1FE01E894A5912591359145915591B6
:100F8000AEF3EF0160D1FE019701A801DA9479F781
:100F9000DF90EF90FF900F911F91CF91DF91089517
:100FA00057FD9058440F551F59F05F3F71F047951A
:100FB000880F97FB991F61F09F3F79F087950895FF
:100FC000121613061406551FF2CF4695F1DF08C01E
:100FD000161617061806991FF1CF8695710561053B
:100FE00008940895E894BB2766277727CB0197F9E3
:100FF00008959B01AC0160E070E080E89FE376C15A
:10100000A1CFDCC1D5DFE8F39923D9F3940F511DAB
:10101000BBF39150504094F059F0882332F0660FA2
:10102000771F881F91505040C1F79E3F510544F7EC
:10103000880F911D9695879597F908955F3FACF0BD
:10104000983E9CF0BB27869577956795B79508F4F1
:10105000B1609395C1F7BB0F58F711F460FFE8CF6B
:101060006F5F7F4F8F4F9F4FE3CFBDCF0EF0A6C175
:101070006FCF689467CF9CDFC8F39923D1F3C6F391
:10108000DF93CF931F930F93FF92C92FDD27882300
:101090002AF02197660F771F881FDAF720E030E0EB
:1010A00040E85FEB9FE3883920F0803E30F02196E6
:1010B0008F77B8D0E0ECF0E003C0B4D0EDEEF0E014
:1010C0004ADF8B01BE01EC01FB2E6F57710975954C
:1010D000771F880B990B74DA28E132E741E35FE36D
:1010E00049D0AF2D9801AE01FF900F911F91CF9184
:1010F000DF91A9D07FC1FA01DC01AA0FBB1F9B01C0
:10110000AC01BF5728F422273327442750781FC04B
:10111000B75188F4AB2F0024469537952795011CCD
:10112000A395D2F3002069F0220F331F441FB3951B
:10113000DAF30DD076C061307105A0E88A07B946B0
:1011400030F49B01AC01662777278827907830968A
:1011500021F0208331834283538308950BD04AC109
:101160003BD128F040D118F0952309F0EBCEF0CE1A
:10117000112439CF15DFA0F3959FD1F3950F50E0DF
:10118000551F629FF001729FBB27F00DB11D639F39
:10119000AA27F00DB11DAA1F649F6627B00DA11DDF
:1011A000661F829F2227B00DA11D621F739FB00D85
:1011B000A11D621F839FA00D611D221F749F3327F5
:1011C000A00D611D231F849F600D211D822F762F8E
:1011D0006A2F11249F5750408AF0E1F088234AF08B
:1011E000EE0FFF1FBB1F661F771F881F91505040D7
:1011F000A9F79E3F510570F0A5CEF5CE5F3FECF309
:10120000983EDCF3869577956795B795F795E795C2
:101210009F5FC1F7FE2B880F911D9695879597F9D3
:1012200008955058BB27AA270ED0E4C0D5D030F07F
:10123000DAD020F031F49F3F11F41EF489CE0EF481
:10124000E095E7FB7FCEE92FABDE80F3BA176207AC
:1012500073078407950718F071F49EF5C3CE0EF45A
:10126000E0950B2EBA2FA02D0B01B90190010C01B6
:10127000CA01A0011124FF27591B99F0593F50F4CE
:10128000503E68F11A16F040A22F232F342F442726
:10129000585FF3CF469537952795A795F04053951E
:1012A000C9F77EF41F16BA0B620B730B840BBAF0EE
:1012B0009150A1F0FF0FBB1F661F771F881FC2F759
:1012C0000EC0BA0F621F731F841F48F4879577956D
:1012D0006795B795F7959E3F08F0B3CF9395880F24
:1012E00008F09927EE0F9795879508950CD082C046
:1012F0007AD040F071D030F021F45F3F19F022CE67
:10130000511171CE25CE4CDE98F39923C9F35523A4
:10131000B1F3951B550BBB27AA27621773078407E8
:1013200038F09F5F5F4F220F331F441FAA1FA9F39E
:1013300033D00E2E3AF0E0E830D091505040E69590
:10134000001CCAF729D0FE2F27D0660F771F881FF1
:10135000BB1F261737074807AB07B0E809F0BB0BE0
:10136000802DBF01FF2793585F4F2AF09E3F510504
:1013700068F0E8CD38CE5F3FECF3983EDCF386951D
:1013800077956795B795F7959F5FC9F7880F911D7A
:101390009695879597F90895E1E0660F771F881F66
:1013A000BB1F621773078407BA0720F0621B730B19
:1013B000840BBA0BEE1F88F7E09508959F3F31F03C
:1013C000915020F4879577956795B795880F911D73
:1013D0009695879597F9089500240A94161617068E
:1013E00018060906089500240A9412161306140616
:1013F00005060895092E0394000C11F4882352F079
:10140000BB0F40F4BF2B11F460FF04C06F5F7F4F30
:0A1410008F4F9F4F0895F894FFCF0F
:10141A00FFFFFFFF0A0003000200020001000300B1
:10142A00010001000200010005000700020004009B
:10143A000800040003000800030001000500020080
:10144A00050008000800010001000600070004006A
:10145A00030002000500080001000500070007005C
:10146A00030008000500040003000800040004004B
:10147A000200060002000100020003000400050049
:10148A00060007000800080007000600050004001F
:10149A0003000200010057756E646572426F617243
:1014AA006420696E697469616C697A696E672E2E47
:1014BA002E0D0A000953657474696E67204144430E
:1014CA00207072657363616C657220616E6420645A
:1014DA00697361626C696E672066726565207275F0
:1014EA006E6E696E67206D6F64652E2E2E0D0A0072
:1014FA0009456E61626C696E67204144432E2E2E47
:10150A000D0A000953657474696E672041444320CB
:10151A007265666572656E636520746F20566363D3
:10152A002E2E2E0D0A0009436F6E66696775726961
:10153A006E6720494F2E2E2E0D0A000953657474CA
:10154A00696E67205350490D0A0000010202030325
:10155A00030304040404040404040505050505053D
:10156A00050505050505050505050606060606061B
:10157A000606060606060606060606060606060601
:10158A0006060606060606060606070707070707EB
:10159A0007070707070707070707070707070707D1
:1015AA0007070707070707070707070707070707C1
:1015BA0007070707070707070707070707070707B1
:1015CA00070707070707070707070808080808089B
:1015DA000808080808080808080808080808080881
:1015EA000808080808080808080808080808080871
:1015FA000808080808080808080808080808080861
:10160A000808080808080808080808080808080850
:10161A000808080808080808080808080808080840
:10162A000808080808080808080808080808080830
:10163A000808080808080808080808080808080820
:0A164A000808080808080808080846
:00000001FF
