:100000000C944C000C946B000C946B000C946B00E3
:100010000C946B000C946B000C946B000C946B00B4
:100020000C946B000C946B000C946B000C946B00A4
:100030000C946B000C946B000C946B000C946B0094
:100040000C946B000C94D0000C946B000C946B001F
:100050000C946B000C946B000C946B000C946B0074
:100060000C946B000C946B000C946B000C946B0064
:100070000C946B000C946B000C946B000C946B0054
:100080000C946B000C946B000C946B000C946B0044
:100090000C946B000C946B0011241FBECFEFD0E2C8
:1000A000DEBFCDBF12E0A0E0B1E0ECEBF6E000E097
:1000B0000BBF02C007900D92A034B107D9F712E030
:1000C000A0E4B2E001C01D92A034B107E1F70E94A4
:1000D0004C010C945C030C940000E1E6F0E080E835
:1000E0008083108283E390E00E9496018CE00E945E
:1000F000A10180E091E00E94B3018EE191E00E94B5
:10010000B30185E060E00E9440028AE591E00E9430
:10011000B3010E940E028DE691E00E94B30180E4DB
:100120000E942C0280E991E00E94B30111B887EE91
:1001300084B98FEF87B987E48DB910BA12B881E01E
:1001400085B981E888B91EB811BA80E4809380002F
:100150008BE08093810088E190E090938900809308
:10016000880085EA91E00E94B30181E58CBD089585
:10017000E1E8F0E080818860808380818E7F8083E9
:1001800080818D7F808380818F7E80838EE89BE558
:100190009093890080938800808185608083089592
:1001A0001F920F920FB60F920BB60F9211242F933E
:1001B0003F934F935F936F937F938F939F93AF93EF
:1001C000BF93EF93FF9388B1809588B9B19810924F
:1001D00085001092840084EB91E00E94B301FF91AE
:1001E000EF91BF91AF919F918F917F916F915F91AF
:1001F0004F913F912F910F900BBE0F900FBE0F901C
:100200001F90189581E0B19B80E0089570E0709395
:1002100089006093880016BC0895B19A08950E94E1
:1002200002018823C1F180913C0290913D0282300D
:10023000910529F410923D0210923C0205C00196EE
:1002400090933D0280933C020E940D0180913C02FC
:1002500090913D028130910539F485E89EE19093BB
:1002600089008093880013C02EE83BE53093890015
:10027000209388008230910519F48FEB91E004C03F
:10028000009729F48FED91E00E94B30108958FEF5C
:1002900091E00E94B3010895CF93DF930E946D0017
:1002A0000E94B8000E94F80218B88FE192E00E9404
:1002B000B301C0E0D0E0CEB980913C0290913D0204
:1002C0008130910579F08130910530F082309105CF
:1002D00041F580EE60E002C080E067E040E00E940F
:1002E000F9021DC00E94420388E160E040E00E94E4
:1002F000F90288E160E040E00E94F90288E168E1EB
:1003000040E00E94F90288E160E040E00E94F902CA
:1003100088E160E040E00E94F9020E9442030E94EE
:100320000F012196C830D10520F6C5CF9093CD009E
:100330008093CC0088E18093C90086E08093CA0056
:1003400008959091C80095FFFCCF8093CE0008954A
:100350008091C800807808958091C80087FFFCCF05
:100360008091CE000895EF92FF92CF93DF93E82E15
:10037000E7017E01F92EE70102C00E94A1018991E7
:100380008823D9F7DF91CF91FF90EF900895ECE7A4
:10039000F0E09081907E908390818F71892B808393
:1003A0000895813021F480917C00806203C08091A7
:1003B0007C008F7D80937C000895EAE7F0E09081D7
:1003C000987F908390818770892B808308958823FC
:1003D00099F080917B008B7F80937B0080917B00E4
:1003E0008D7F80937B0080917B008E7F80937B004C
:1003F00080917A00806203C080917A008F7D809323
:100400007A000895EAE7F0E08081886080830895AB
:10041000EAE7F0E08081877F80830895EAE7F0E0F3
:100420008081806880830895EAE7F0E080818F779B
:1004300080830895EAE7F0E08081806480830895F6
:10044000EAE7F0E0808180618083089590917A00EE
:1004500081E094FF80E0089590917C009F739093D9
:100460007C0090917C00807C892B80937C000E9492
:100470001A020E9426028823E1F30E9420020895B6
:10048000DF93CF930F92CDB7DEB769830E94DD0172
:100490006981862F0E94E7010F90CF91DF91089527
:1004A0000E94C70180E00E94D1010E941A020E94AE
:1004B00026028823E1F30E94200280917800909127
:1004C00079000895EF92FF920F931F93DF93CF93DC
:1004D0000F92CDB7DEB7182FEE24FF2400E008C03E
:1004E000812F69830E945002E80EF11C0F5F698121
:1004F0000617B0F3C70170E00E944803862F0F90E3
:10050000CF91DF911F910F91FF90EF9008950E947E
:10051000C70180E00E94D1010E941A020E942602B7
:100520008823E1F30E942002209178003091790025
:10053000C9010895EF92FF920F931F93DF93CF931A
:100540000F92CDB7DEB7182FEE24FF2400E008C0CD
:10055000812F69830E948702E80EF91E0F5F69816F
:100560000617B0F3C70170E00E944803CB010F905B
:10057000CF91DF911F910F91FF90EF9008951EBCD6
:100580000DB407FEFDCF8EBD0DB407FEFDCF1EBC22
:100590000DB407FEFDCF2F9A8AEF90E00197F1F797
:1005A0002F9808951EBC0DB407FEFDCF1EBC0DB4E0
:1005B00007FEFDCF8EBD0DB407FEFDCF2F9A8AEF4B
:1005C00090E00197F1F72F9808958EBD0DB407FEC6
:1005D000FDCF1EBC0DB407FEFDCF1EBC0DB407FE43
:1005E000FDCF2F9A8AEF90E00197F1F72F980895A9
:1005F00008958EBD0DB407FEFDCF6EBD0DB407FE90
:10060000FDCF4EBD0DB407FEFDCF2F9A2F98089554
:100610009EB180958770987F892B8EB9677080E82E
:1006200090E002C0959587956A95E2F760E040E01A
:100630000E94F90208959EB180958770987F892B5A
:100640008EB9677020E830E002C0359527956A952D
:10065000E2F780E0622F40E00E94F90208959EB127
:1006600080958770987F892B8EB9677040E850E03D
:1006700002C0559547956A95E2F780E060E00E94D8
:10068000F902089580E060E040E00E94F9020895D8
:10069000AA1BBB1B51E107C0AA1FBB1FA617B707A8
:1006A00010F0A61BB70B881F991F5A95A9F78095C4
:0C06B0009095BC01CD010895F894FFCF97
:1006BC0057756E646572426F61726420696E6974FD
:1006CC0069616C697A696E672E2E2E0D0A000953CA
:1006DC00657474696E67204144432070726573635E
:1006EC00616C657220616E642064697361626C690F
:1006FC006E6720667265652072756E6E696E672016
:10070C006D6F64652E2E2E0D0A0009456E61626CAC
:10071C00696E67204144432E2E2E0D0A0009536545
:10072C007474696E67204144432072656665726516
:10073C006E636520746F205663632E2E2E0D0A0097
:10074C0009436F6E6669677572696E6720494F2E33
:10075C002E2E0D0A000953657474696E6720535070
:10076C00490D0A00496E746572727570740A0052F4
:10077C004544202020202020202020202020202024
:10078C00202020202020202020202020200D004769
:10079C005245454E202020202020202020202020A3
:1007AC00202020202020202020202020200D005937
:1007BC00454C4C4F5720202020202020202020204A
:1007CC00202020202020202020202020200D00432D
:1007DC00757272656E746C79206F7574707574694E
:1007EC006E6720636F6C6F723A200A00010018006C
:00000001FF
