:100000004BC0000066C0000064C0000062C0000079
:1000100060C000005EC000005CC000005AC000006C
:1000200058C0000056C0000054C0000052C000007C
:1000300050C000004EC000004CC000004AC000008C
:1000400048C0000046C0000044C0000042C000009C
:1000500040C000003EC000003CC000003AC00000AC
:1000600038C0000036C0000034C0000032C00000BC
:1000700030C000002EC000002CC000002AC00000CC
:1000800028C0000026C0000024C0000022C00000DC
:1000900020C000001EC0000011241FBECFEFD0E220
:1000A000DEBFCDBF11E0A0E0B1E0E6EFF2E000E09E
:1000B0000BBF02C007900D92A23FB107D9F711E024
:1000C000A2EFB1E001C01D92A23FB107E1F73BD022
:1000D00010C196CFE1E6F0E080E88083108283E3F0
:1000E00090E060D08CE069D080E091E06DD08EE14E
:1000F00091E06AD085E060E0C7D08AE591E064D005
:100100009BD08DE691E060D080E4AED080E991E0B4
:100110005BD011B887EE84B98FEF87B987E48DB9CA
:1001200010BA12B881E085B91EB811BA80E4809384
:1001300080008BE08093810088E190E090938900BB
:100140008093880008950F931F93CF93DF93C2DFAE
:10015000A9D085EA91E038D081E58CBD80E593ECAB
:10016000FC013197F1F7FC013197F1F7FC01319770
:10017000F1F7FC013197F1F70197F1F784EB91E08A
:1001800023D084E08EB908E813E1C2EED4E080B158
:100190009DD0C8010197F1F780B185D0CE010197BC
:1001A000F1F7F5CF9093CD008093CC0088E1809358
:1001B000C90086E08093CA0008959091C80095FF19
:1001C000FCCF8093CE000895EF92FF92CF93DF9300
:1001D000E82EE7017E01F92EE70101C0EEDF8991EB
:1001E0008823E1F7DF91CF91FF90EF900895EAE740
:1001F000F0E09081987F908390818770892B808335
:100200000895882399F080917B008B7F80937B00F9
:1002100080917B008D7F80937B0080917B008E7F1F
:1002200080937B0080917A00806203C080917A0085
:100230008F7D80937A000895EAE7F0E080818068FE
:1002400080830895EAE7F0E08081806480830895E8
:10025000EAE7F0E0808180618083089590917A00E0
:1002600081E094FF80E0089590917C009F739093CB
:100270007C0090917C00807C892B80937C00E2DF65
:10028000EDDF8823E9F3E4CFDF93CF930F92CDB76F
:10029000DEB76983ACDF6981862FB3DF0F90CF9122
:1002A000DF91089508951EBC0DB407FEFDCF8EBDED
:1002B0000DB407FEFDCF1EBC0DB407FEFDCF2F9A77
:1002C0008AEF90E00197F1F72F9808958EBD0DB455
:1002D00007FEFDCF1EBC0DB407FEFDCF1EBC0DB446
:1002E00007FEFDCF2F9A8AEF90E00197F1F72F9844
:0602F0000895F894FFCF11
:1002F60057756E646572426F61726420696E6974C7
:1003060069616C697A696E672E2E2E0D0A00095393
:10031600657474696E672041444320707265736327
:10032600616C657220616E642064697361626C69D8
:100336006E6720667265652072756E6E696E6720DF
:100346006D6F64652E2E2E0D0A0009456E61626C76
:10035600696E67204144432E2E2E0D0A000953650F
:100366007474696E672041444320726566657265E0
:100376006E636520746F205663632E2E2E0D0A0061
:1003860009436F6E6669677572696E6720494F2EFD
:100396002E2E0D0A000953657474696E672053503A
:1003A600490D0A0054657374696E67204C454420F4
:1003B60041525241592E2050726573732053302C8E
:1003C6002053312C20616E6420533220746F2063D9
:1003D6006865636B20616C6C20636F6C6F72730D64
:0203E6000A000B
:00000001FF
